{
	"data": {
		"bytecode": {
			"linkReferences": {},
			"object": "608060405234801561001057600080fd5b5060008060006101000a81548160ff0219169083600381111561003657610035610040565b5b021790555061006f565b7f4e487b7100000000000000000000000000000000000000000000000000000000600052602160045260246000fd5b6108128061007e6000396000f3fe608060405234801561001057600080fd5b50600436106100625760003560e01c8063196fbd7a146100675780633ba825ec146100715780635745105b1461008f5780636eb4a8d214610099578063dfb2abd2146100a3578063f1d67397146100ad575b600080fd5b61006f6100cb565b005b6100796101d0565b60405161008691906105c8565b60405180910390f35b6100976101e1565b005b6100a16102e6565b005b6100ab6103eb565b005b6100b561052b565b6040516100c291906105c8565b60405180910390f35b600160038111156100df576100de6106ac565b5b60008054906101000a900460ff1660038111156100ff576100fe6106ac565b5b1461013f576040517f08c379a00000000000000000000000000000000000000000000000000000000081526004016101369061060c565b60405180910390fd5b60026000806101000a81548160ff02191690836003811115610164576101636106ac565b5b02179055507f077f134d3966f81009f754fc11af11c8f578f7101883ef57d6923bef5fb2c01260008054906101000a900460ff1660008054906101000a900460ff1660038111156101b8576101b76106ac565b5b6040516101c69291906105e3565b60405180910390a1565b60008054906101000a900460ff1681565b600260038111156101f5576101f46106ac565b5b60008054906101000a900460ff166003811115610215576102146106ac565b5b14610255576040517f08c379a000000000000000000000000000000000000000000000000000000000815260040161024c9061060c565b60405180910390fd5b60036000806101000a81548160ff0219169083600381111561027a576102796106ac565b5b02179055507f077f134d3966f81009f754fc11af11c8f578f7101883ef57d6923bef5fb2c01260008054906101000a900460ff1660008054906101000a900460ff1660038111156102ce576102cd6106ac565b5b6040516102dc9291906105e3565b60405180910390a1565b600060038111156102fa576102f96106ac565b5b60008054906101000a900460ff16600381111561031a576103196106ac565b5b1461035a576040517f08c379a00000000000000000000000000000000000000000000000000000000081526004016103519061062c565b60405180910390fd5b60016000806101000a81548160ff0219169083600381111561037f5761037e6106ac565b5b02179055507f077f134d3966f81009f754fc11af11c8f578f7101883ef57d6923bef5fb2c01260008054906101000a900460ff1660008054906101000a900460ff1660038111156103d3576103d26106ac565b5b6040516103e19291906105e3565b60405180910390a1565b600160038111156103ff576103fe6106ac565b5b60008054906101000a900460ff16600381111561041f5761041e6106ac565b5b148061045b5750600380811115610439576104386106ac565b5b60008054906101000a900460ff166003811115610459576104586106ac565b5b145b61049a576040517f08c379a00000000000000000000000000000000000000000000000000000000081526004016104919061064c565b60405180910390fd5b60008060006101000a81548160ff021916908360038111156104bf576104be6106ac565b5b02179055507f077f134d3966f81009f754fc11af11c8f578f7101883ef57d6923bef5fb2c01260008054906101000a900460ff1660008054906101000a900460ff166003811115610513576105126106ac565b5b6040516105219291906105e3565b60405180910390a1565b60008060009054906101000a900460ff16905090565b61054a8161069a565b82525050565b600061055d602a8361066c565b9150610568826106db565b604082019050919050565b600061058060278361066c565b915061058b8261072a565b604082019050919050565b60006105a360328361066c565b91506105ae82610779565b604082019050919050565b6105c281610690565b82525050565b60006020820190506105dd6000830184610541565b92915050565b60006040820190506105f86000830185610541565b61060560208301846105b9565b9392505050565b6000602082019050818103600083015261062581610550565b9050919050565b6000602082019050818103600083015261064581610573565b9050919050565b6000602082019050818103600083015261066581610596565b9050919050565b600082825260208201905092915050565b600081905061068b826107c8565b919050565b6000819050919050565b60006106a58261067d565b9050919050565b7f4e487b7100000000000000000000000000000000000000000000000000000000600052602160045260246000fd5b7f546f2064726976652061206361722c20796f757220636172206d75737420626560008201527f207475726e6564206f6e00000000000000000000000000000000000000000000602082015250565b7f546f207475726e206f6e2c20796f757220636172206d7573742062652074757260008201527f6e6564206f666600000000000000000000000000000000000000000000000000602082015250565b7f546f207475726e206f66662c20796f757220636172206d75737420626520747560008201527f726e6564206f6e206f722064726976696e670000000000000000000000000000602082015250565b600481106107d9576107d86106ac565b5b5056fea264697066735822122068f8aae8b77ed14c5e8179f925483dadfdc9edee2d7dc280e2919fe00c05b4cc64736f6c63430008070033",
			"opcodes": "PUSH1 0x80 PUSH1 0x40 MSTORE CALLVALUE DUP1 ISZERO PUSH2 0x10 JUMPI PUSH1 0x0 DUP1 REVERT JUMPDEST POP PUSH1 0x0 DUP1 PUSH1 0x0 PUSH2 0x100 EXP DUP2 SLOAD DUP2 PUSH1 0xFF MUL NOT AND SWAP1 DUP4 PUSH1 0x3 DUP2 GT ISZERO PUSH2 0x36 JUMPI PUSH2 0x35 PUSH2 0x40 JUMP JUMPDEST JUMPDEST MUL OR SWAP1 SSTORE POP PUSH2 0x6F JUMP JUMPDEST PUSH32 0x4E487B7100000000000000000000000000000000000000000000000000000000 PUSH1 0x0 MSTORE PUSH1 0x21 PUSH1 0x4 MSTORE PUSH1 0x24 PUSH1 0x0 REVERT JUMPDEST PUSH2 0x812 DUP1 PUSH2 0x7E PUSH1 0x0 CODECOPY PUSH1 0x0 RETURN INVALID PUSH1 0x80 PUSH1 0x40 MSTORE CALLVALUE DUP1 ISZERO PUSH2 0x10 JUMPI PUSH1 0x0 DUP1 REVERT JUMPDEST POP PUSH1 0x4 CALLDATASIZE LT PUSH2 0x62 JUMPI PUSH1 0x0 CALLDATALOAD PUSH1 0xE0 SHR DUP1 PUSH4 0x196FBD7A EQ PUSH2 0x67 JUMPI DUP1 PUSH4 0x3BA825EC EQ PUSH2 0x71 JUMPI DUP1 PUSH4 0x5745105B EQ PUSH2 0x8F JUMPI DUP1 PUSH4 0x6EB4A8D2 EQ PUSH2 0x99 JUMPI DUP1 PUSH4 0xDFB2ABD2 EQ PUSH2 0xA3 JUMPI DUP1 PUSH4 0xF1D67397 EQ PUSH2 0xAD JUMPI JUMPDEST PUSH1 0x0 DUP1 REVERT JUMPDEST PUSH2 0x6F PUSH2 0xCB JUMP JUMPDEST STOP JUMPDEST PUSH2 0x79 PUSH2 0x1D0 JUMP JUMPDEST PUSH1 0x40 MLOAD PUSH2 0x86 SWAP2 SWAP1 PUSH2 0x5C8 JUMP JUMPDEST PUSH1 0x40 MLOAD DUP1 SWAP2 SUB SWAP1 RETURN JUMPDEST PUSH2 0x97 PUSH2 0x1E1 JUMP JUMPDEST STOP JUMPDEST PUSH2 0xA1 PUSH2 0x2E6 JUMP JUMPDEST STOP JUMPDEST PUSH2 0xAB PUSH2 0x3EB JUMP JUMPDEST STOP JUMPDEST PUSH2 0xB5 PUSH2 0x52B JUMP JUMPDEST PUSH1 0x40 MLOAD PUSH2 0xC2 SWAP2 SWAP1 PUSH2 0x5C8 JUMP JUMPDEST PUSH1 0x40 MLOAD DUP1 SWAP2 SUB SWAP1 RETURN JUMPDEST PUSH1 0x1 PUSH1 0x3 DUP2 GT ISZERO PUSH2 0xDF JUMPI PUSH2 0xDE PUSH2 0x6AC JUMP JUMPDEST JUMPDEST PUSH1 0x0 DUP1 SLOAD SWAP1 PUSH2 0x100 EXP SWAP1 DIV PUSH1 0xFF AND PUSH1 0x3 DUP2 GT ISZERO PUSH2 0xFF JUMPI PUSH2 0xFE PUSH2 0x6AC JUMP JUMPDEST JUMPDEST EQ PUSH2 0x13F JUMPI PUSH1 0x40 MLOAD PUSH32 0x8C379A000000000000000000000000000000000000000000000000000000000 DUP2 MSTORE PUSH1 0x4 ADD PUSH2 0x136 SWAP1 PUSH2 0x60C JUMP JUMPDEST PUSH1 0x40 MLOAD DUP1 SWAP2 SUB SWAP1 REVERT JUMPDEST PUSH1 0x2 PUSH1 0x0 DUP1 PUSH2 0x100 EXP DUP2 SLOAD DUP2 PUSH1 0xFF MUL NOT AND SWAP1 DUP4 PUSH1 0x3 DUP2 GT ISZERO PUSH2 0x164 JUMPI PUSH2 0x163 PUSH2 0x6AC JUMP JUMPDEST JUMPDEST MUL OR SWAP1 SSTORE POP PUSH32 0x77F134D3966F81009F754FC11AF11C8F578F7101883EF57D6923BEF5FB2C012 PUSH1 0x0 DUP1 SLOAD SWAP1 PUSH2 0x100 EXP SWAP1 DIV PUSH1 0xFF AND PUSH1 0x0 DUP1 SLOAD SWAP1 PUSH2 0x100 EXP SWAP1 DIV PUSH1 0xFF AND PUSH1 0x3 DUP2 GT ISZERO PUSH2 0x1B8 JUMPI PUSH2 0x1B7 PUSH2 0x6AC JUMP JUMPDEST JUMPDEST PUSH1 0x40 MLOAD PUSH2 0x1C6 SWAP3 SWAP2 SWAP1 PUSH2 0x5E3 JUMP JUMPDEST PUSH1 0x40 MLOAD DUP1 SWAP2 SUB SWAP1 LOG1 JUMP JUMPDEST PUSH1 0x0 DUP1 SLOAD SWAP1 PUSH2 0x100 EXP SWAP1 DIV PUSH1 0xFF AND DUP2 JUMP JUMPDEST PUSH1 0x2 PUSH1 0x3 DUP2 GT ISZERO PUSH2 0x1F5 JUMPI PUSH2 0x1F4 PUSH2 0x6AC JUMP JUMPDEST JUMPDEST PUSH1 0x0 DUP1 SLOAD SWAP1 PUSH2 0x100 EXP SWAP1 DIV PUSH1 0xFF AND PUSH1 0x3 DUP2 GT ISZERO PUSH2 0x215 JUMPI PUSH2 0x214 PUSH2 0x6AC JUMP JUMPDEST JUMPDEST EQ PUSH2 0x255 JUMPI PUSH1 0x40 MLOAD PUSH32 0x8C379A000000000000000000000000000000000000000000000000000000000 DUP2 MSTORE PUSH1 0x4 ADD PUSH2 0x24C SWAP1 PUSH2 0x60C JUMP JUMPDEST PUSH1 0x40 MLOAD DUP1 SWAP2 SUB SWAP1 REVERT JUMPDEST PUSH1 0x3 PUSH1 0x0 DUP1 PUSH2 0x100 EXP DUP2 SLOAD DUP2 PUSH1 0xFF MUL NOT AND SWAP1 DUP4 PUSH1 0x3 DUP2 GT ISZERO PUSH2 0x27A JUMPI PUSH2 0x279 PUSH2 0x6AC JUMP JUMPDEST JUMPDEST MUL OR SWAP1 SSTORE POP PUSH32 0x77F134D3966F81009F754FC11AF11C8F578F7101883EF57D6923BEF5FB2C012 PUSH1 0x0 DUP1 SLOAD SWAP1 PUSH2 0x100 EXP SWAP1 DIV PUSH1 0xFF AND PUSH1 0x0 DUP1 SLOAD SWAP1 PUSH2 0x100 EXP SWAP1 DIV PUSH1 0xFF AND PUSH1 0x3 DUP2 GT ISZERO PUSH2 0x2CE JUMPI PUSH2 0x2CD PUSH2 0x6AC JUMP JUMPDEST JUMPDEST PUSH1 0x40 MLOAD PUSH2 0x2DC SWAP3 SWAP2 SWAP1 PUSH2 0x5E3 JUMP JUMPDEST PUSH1 0x40 MLOAD DUP1 SWAP2 SUB SWAP1 LOG1 JUMP JUMPDEST PUSH1 0x0 PUSH1 0x3 DUP2 GT ISZERO PUSH2 0x2FA JUMPI PUSH2 0x2F9 PUSH2 0x6AC JUMP JUMPDEST JUMPDEST PUSH1 0x0 DUP1 SLOAD SWAP1 PUSH2 0x100 EXP SWAP1 DIV PUSH1 0xFF AND PUSH1 0x3 DUP2 GT ISZERO PUSH2 0x31A JUMPI PUSH2 0x319 PUSH2 0x6AC JUMP JUMPDEST JUMPDEST EQ PUSH2 0x35A JUMPI PUSH1 0x40 MLOAD PUSH32 0x8C379A000000000000000000000000000000000000000000000000000000000 DUP2 MSTORE PUSH1 0x4 ADD PUSH2 0x351 SWAP1 PUSH2 0x62C JUMP JUMPDEST PUSH1 0x40 MLOAD DUP1 SWAP2 SUB SWAP1 REVERT JUMPDEST PUSH1 0x1 PUSH1 0x0 DUP1 PUSH2 0x100 EXP DUP2 SLOAD DUP2 PUSH1 0xFF MUL NOT AND SWAP1 DUP4 PUSH1 0x3 DUP2 GT ISZERO PUSH2 0x37F JUMPI PUSH2 0x37E PUSH2 0x6AC JUMP JUMPDEST JUMPDEST MUL OR SWAP1 SSTORE POP PUSH32 0x77F134D3966F81009F754FC11AF11C8F578F7101883EF57D6923BEF5FB2C012 PUSH1 0x0 DUP1 SLOAD SWAP1 PUSH2 0x100 EXP SWAP1 DIV PUSH1 0xFF AND PUSH1 0x0 DUP1 SLOAD SWAP1 PUSH2 0x100 EXP SWAP1 DIV PUSH1 0xFF AND PUSH1 0x3 DUP2 GT ISZERO PUSH2 0x3D3 JUMPI PUSH2 0x3D2 PUSH2 0x6AC JUMP JUMPDEST JUMPDEST PUSH1 0x40 MLOAD PUSH2 0x3E1 SWAP3 SWAP2 SWAP1 PUSH2 0x5E3 JUMP JUMPDEST PUSH1 0x40 MLOAD DUP1 SWAP2 SUB SWAP1 LOG1 JUMP JUMPDEST PUSH1 0x1 PUSH1 0x3 DUP2 GT ISZERO PUSH2 0x3FF JUMPI PUSH2 0x3FE PUSH2 0x6AC JUMP JUMPDEST JUMPDEST PUSH1 0x0 DUP1 SLOAD SWAP1 PUSH2 0x100 EXP SWAP1 DIV PUSH1 0xFF AND PUSH1 0x3 DUP2 GT ISZERO PUSH2 0x41F JUMPI PUSH2 0x41E PUSH2 0x6AC JUMP JUMPDEST JUMPDEST EQ DUP1 PUSH2 0x45B JUMPI POP PUSH1 0x3 DUP1 DUP2 GT ISZERO PUSH2 0x439 JUMPI PUSH2 0x438 PUSH2 0x6AC JUMP JUMPDEST JUMPDEST PUSH1 0x0 DUP1 SLOAD SWAP1 PUSH2 0x100 EXP SWAP1 DIV PUSH1 0xFF AND PUSH1 0x3 DUP2 GT ISZERO PUSH2 0x459 JUMPI PUSH2 0x458 PUSH2 0x6AC JUMP JUMPDEST JUMPDEST EQ JUMPDEST PUSH2 0x49A JUMPI PUSH1 0x40 MLOAD PUSH32 0x8C379A000000000000000000000000000000000000000000000000000000000 DUP2 MSTORE PUSH1 0x4 ADD PUSH2 0x491 SWAP1 PUSH2 0x64C JUMP JUMPDEST PUSH1 0x40 MLOAD DUP1 SWAP2 SUB SWAP1 REVERT JUMPDEST PUSH1 0x0 DUP1 PUSH1 0x0 PUSH2 0x100 EXP DUP2 SLOAD DUP2 PUSH1 0xFF MUL NOT AND SWAP1 DUP4 PUSH1 0x3 DUP2 GT ISZERO PUSH2 0x4BF JUMPI PUSH2 0x4BE PUSH2 0x6AC JUMP JUMPDEST JUMPDEST MUL OR SWAP1 SSTORE POP PUSH32 0x77F134D3966F81009F754FC11AF11C8F578F7101883EF57D6923BEF5FB2C012 PUSH1 0x0 DUP1 SLOAD SWAP1 PUSH2 0x100 EXP SWAP1 DIV PUSH1 0xFF AND PUSH1 0x0 DUP1 SLOAD SWAP1 PUSH2 0x100 EXP SWAP1 DIV PUSH1 0xFF AND PUSH1 0x3 DUP2 GT ISZERO PUSH2 0x513 JUMPI PUSH2 0x512 PUSH2 0x6AC JUMP JUMPDEST JUMPDEST PUSH1 0x40 MLOAD PUSH2 0x521 SWAP3 SWAP2 SWAP1 PUSH2 0x5E3 JUMP JUMPDEST PUSH1 0x40 MLOAD DUP1 SWAP2 SUB SWAP1 LOG1 JUMP JUMPDEST PUSH1 0x0 DUP1 PUSH1 0x0 SWAP1 SLOAD SWAP1 PUSH2 0x100 EXP SWAP1 DIV PUSH1 0xFF AND SWAP1 POP SWAP1 JUMP JUMPDEST PUSH2 0x54A DUP2 PUSH2 0x69A JUMP JUMPDEST DUP3 MSTORE POP POP JUMP JUMPDEST PUSH1 0x0 PUSH2 0x55D PUSH1 0x2A DUP4 PUSH2 0x66C JUMP JUMPDEST SWAP2 POP PUSH2 0x568 DUP3 PUSH2 0x6DB JUMP JUMPDEST PUSH1 0x40 DUP3 ADD SWAP1 POP SWAP2 SWAP1 POP JUMP JUMPDEST PUSH1 0x0 PUSH2 0x580 PUSH1 0x27 DUP4 PUSH2 0x66C JUMP JUMPDEST SWAP2 POP PUSH2 0x58B DUP3 PUSH2 0x72A JUMP JUMPDEST PUSH1 0x40 DUP3 ADD SWAP1 POP SWAP2 SWAP1 POP JUMP JUMPDEST PUSH1 0x0 PUSH2 0x5A3 PUSH1 0x32 DUP4 PUSH2 0x66C JUMP JUMPDEST SWAP2 POP PUSH2 0x5AE DUP3 PUSH2 0x779 JUMP JUMPDEST PUSH1 0x40 DUP3 ADD SWAP1 POP SWAP2 SWAP1 POP JUMP JUMPDEST PUSH2 0x5C2 DUP2 PUSH2 0x690 JUMP JUMPDEST DUP3 MSTORE POP POP JUMP JUMPDEST PUSH1 0x0 PUSH1 0x20 DUP3 ADD SWAP1 POP PUSH2 0x5DD PUSH1 0x0 DUP4 ADD DUP5 PUSH2 0x541 JUMP JUMPDEST SWAP3 SWAP2 POP POP JUMP JUMPDEST PUSH1 0x0 PUSH1 0x40 DUP3 ADD SWAP1 POP PUSH2 0x5F8 PUSH1 0x0 DUP4 ADD DUP6 PUSH2 0x541 JUMP JUMPDEST PUSH2 0x605 PUSH1 0x20 DUP4 ADD DUP5 PUSH2 0x5B9 JUMP JUMPDEST SWAP4 SWAP3 POP POP POP JUMP JUMPDEST PUSH1 0x0 PUSH1 0x20 DUP3 ADD SWAP1 POP DUP2 DUP2 SUB PUSH1 0x0 DUP4 ADD MSTORE PUSH2 0x625 DUP2 PUSH2 0x550 JUMP JUMPDEST SWAP1 POP SWAP2 SWAP1 POP JUMP JUMPDEST PUSH1 0x0 PUSH1 0x20 DUP3 ADD SWAP1 POP DUP2 DUP2 SUB PUSH1 0x0 DUP4 ADD MSTORE PUSH2 0x645 DUP2 PUSH2 0x573 JUMP JUMPDEST SWAP1 POP SWAP2 SWAP1 POP JUMP JUMPDEST PUSH1 0x0 PUSH1 0x20 DUP3 ADD SWAP1 POP DUP2 DUP2 SUB PUSH1 0x0 DUP4 ADD MSTORE PUSH2 0x665 DUP2 PUSH2 0x596 JUMP JUMPDEST SWAP1 POP SWAP2 SWAP1 POP JUMP JUMPDEST PUSH1 0x0 DUP3 DUP3 MSTORE PUSH1 0x20 DUP3 ADD SWAP1 POP SWAP3 SWAP2 POP POP JUMP JUMPDEST PUSH1 0x0 DUP2 SWAP1 POP PUSH2 0x68B DUP3 PUSH2 0x7C8 JUMP JUMPDEST SWAP2 SWAP1 POP JUMP JUMPDEST PUSH1 0x0 DUP2 SWAP1 POP SWAP2 SWAP1 POP JUMP JUMPDEST PUSH1 0x0 PUSH2 0x6A5 DUP3 PUSH2 0x67D JUMP JUMPDEST SWAP1 POP SWAP2 SWAP1 POP JUMP JUMPDEST PUSH32 0x4E487B7100000000000000000000000000000000000000000000000000000000 PUSH1 0x0 MSTORE PUSH1 0x21 PUSH1 0x4 MSTORE PUSH1 0x24 PUSH1 0x0 REVERT JUMPDEST PUSH32 0x546F2064726976652061206361722C20796F757220636172206D757374206265 PUSH1 0x0 DUP3 ADD MSTORE PUSH32 0x207475726E6564206F6E00000000000000000000000000000000000000000000 PUSH1 0x20 DUP3 ADD MSTORE POP JUMP JUMPDEST PUSH32 0x546F207475726E206F6E2C20796F757220636172206D75737420626520747572 PUSH1 0x0 DUP3 ADD MSTORE PUSH32 0x6E6564206F666600000000000000000000000000000000000000000000000000 PUSH1 0x20 DUP3 ADD MSTORE POP JUMP JUMPDEST PUSH32 0x546F207475726E206F66662C20796F757220636172206D757374206265207475 PUSH1 0x0 DUP3 ADD MSTORE PUSH32 0x726E6564206F6E206F722064726976696E670000000000000000000000000000 PUSH1 0x20 DUP3 ADD MSTORE POP JUMP JUMPDEST PUSH1 0x4 DUP2 LT PUSH2 0x7D9 JUMPI PUSH2 0x7D8 PUSH2 0x6AC JUMP JUMPDEST JUMPDEST POP JUMP INVALID LOG2 PUSH5 0x6970667358 0x22 SLT KECCAK256 PUSH9 0xF8AAE8B77ED14C5E81 PUSH26 0xF925483DADFDC9EDEE2D7DC280E2919FE00C05B4CC64736F6C63 NUMBER STOP ADDMOD SMOD STOP CALLER "
		},
		"gasEstimates": {
			"creation": {
				"codeDepositCost": "413200",
				"executionCost": "24748",
				"totalCost": "437948"
			},
			"external": {
				"CheckStatus()": "2656",
				"DrivingCar()": "32554",
				"StopCar()": "32598",
				"carStatus()": "2557",
				"turnOffCar()": "34855",
				"turnOnCar()": "32620"
			}
		},
		"methodIdentifiers": {
			"CheckStatus()": "f1d67397",
			"DrivingCar()": "196fbd7a",
			"StopCar()": "5745105b",
			"carStatus()": "3ba825ec",
			"turnOffCar()": "dfb2abd2",
			"turnOnCar()": "6eb4a8d2"
		}
	},
	"abi": [
		{
			"inputs": [],
			"stateMutability": "nonpayable",
			"type": "constructor"
		},
		{
			"anonymous": false,
			"inputs": [
				{
					"indexed": false,
					"internalType": "enum lec38.CarStatus",
					"name": "_carStatus",
					"type": "uint8"
				},
				{
					"indexed": false,
					"internalType": "uint256",
					"name": "_carStatusInInt",
					"type": "uint256"
				}
			],
			"name": "carCurrentStatus",
			"type": "event"
		},
		{
			"inputs": [],
			"name": "CheckStatus",
			"outputs": [
				{
					"internalType": "enum lec38.CarStatus",
					"name": "",
					"type": "uint8"
				}
			],
			"stateMutability": "view",
			"type": "function"
		},
		{
			"inputs": [],
			"name": "DrivingCar",
			"outputs": [],
			"stateMutability": "nonpayable",
			"type": "function"
		},
		{
			"inputs": [],
			"name": "StopCar",
			"outputs": [],
			"stateMutability": "nonpayable",
			"type": "function"
		},
		{
			"inputs": [],
			"name": "carStatus",
			"outputs": [
				{
					"internalType": "enum lec38.CarStatus",
					"name": "",
					"type": "uint8"
				}
			],
			"stateMutability": "view",
			"type": "function"
		},
		{
			"inputs": [],
			"name": "turnOffCar",
			"outputs": [],
			"stateMutability": "nonpayable",
			"type": "function"
		},
		{
			"inputs": [],
			"name": "turnOnCar",
			"outputs": [],
			"stateMutability": "nonpayable",
			"type": "function"
		}
	]
}