{
	"data": {
		"bytecode": {
			"linkReferences": {},
			"object": "6080604052600560005534801561001557600080fd5b50610447806100256000396000f3fe608060405234801561001057600080fd5b506004361061004c5760003560e01c806332a61695146100515780634e70b1dc1461005b5780635b2706b6146100795780637128a08814610097575b600080fd5b6100596100c7565b005b6100636100d9565b60405161007091906102d2565b60405180910390f35b6100816100df565b60405161008e9190610270565b60405180910390f35b6100b160048036038101906100ac91906101b5565b61011c565b6040516100be9190610270565b60405180910390f35b600f600081905550600a600081905550565b60005481565b60606040517f08c379a0000000000000000000000000000000000000000000000000000000008152600401610113906102b2565b60405180910390fd5b60608160128111610162576040517f08c379a000000000000000000000000000000000000000000000000000000000815260040161015990610292565b60405180910390fd5b6040518060400160405280601981526020017f796f7572207061796d656e742069732073756363656564656400000000000000815250915050919050565b6000813590506101af816103fa565b92915050565b6000602082840312156101cb576101ca610346565b5b60006101d9848285016101a0565b91505092915050565b60006101ed826102ed565b6101f781856102f8565b9350610207818560208601610313565b6102108161034b565b840191505092915050565b6000610228602c836102f8565b91506102338261035c565b604082019050919050565b600061024b602c836102f8565b9150610256826103ab565b604082019050919050565b61026a81610309565b82525050565b6000602082019050818103600083015261028a81846101e2565b905092915050565b600060208201905081810360008301526102ab8161021b565b9050919050565b600060208201905081810360008301526102cb8161023e565b9050919050565b60006020820190506102e76000830184610261565b92915050565b600081519050919050565b600082825260208201905092915050565b6000819050919050565b60005b83811015610331578082015181840152602081019050610316565b83811115610340576000848401525b50505050565b600080fd5b6000601f19601f8301169050919050565b7f596f7520617265206e6f7420616c6c6f77656420746f2070617920666f72207460008201527f6865206369676172657474650000000000000000000000000000000000000000602082015250565b7f796f7520617265206e6f7420616c6c6f77656420746f2070617920666f72207460008201527f6865206369676172657474650000000000000000000000000000000000000000602082015250565b61040381610309565b811461040e57600080fd5b5056fea2646970667358221220975031720e3b97857c9e51dd9ff3422aa06df6cacfc0f6ba422220b72bfec4b464736f6c63430008070033",
			"opcodes": "PUSH1 0x80 PUSH1 0x40 MSTORE PUSH1 0x5 PUSH1 0x0 SSTORE CALLVALUE DUP1 ISZERO PUSH2 0x15 JUMPI PUSH1 0x0 DUP1 REVERT JUMPDEST POP PUSH2 0x447 DUP1 PUSH2 0x25 PUSH1 0x0 CODECOPY PUSH1 0x0 RETURN INVALID PUSH1 0x80 PUSH1 0x40 MSTORE CALLVALUE DUP1 ISZERO PUSH2 0x10 JUMPI PUSH1 0x0 DUP1 REVERT JUMPDEST POP PUSH1 0x4 CALLDATASIZE LT PUSH2 0x4C JUMPI PUSH1 0x0 CALLDATALOAD PUSH1 0xE0 SHR DUP1 PUSH4 0x32A61695 EQ PUSH2 0x51 JUMPI DUP1 PUSH4 0x4E70B1DC EQ PUSH2 0x5B JUMPI DUP1 PUSH4 0x5B2706B6 EQ PUSH2 0x79 JUMPI DUP1 PUSH4 0x7128A088 EQ PUSH2 0x97 JUMPI JUMPDEST PUSH1 0x0 DUP1 REVERT JUMPDEST PUSH2 0x59 PUSH2 0xC7 JUMP JUMPDEST STOP JUMPDEST PUSH2 0x63 PUSH2 0xD9 JUMP JUMPDEST PUSH1 0x40 MLOAD PUSH2 0x70 SWAP2 SWAP1 PUSH2 0x2D2 JUMP JUMPDEST PUSH1 0x40 MLOAD DUP1 SWAP2 SUB SWAP1 RETURN JUMPDEST PUSH2 0x81 PUSH2 0xDF JUMP JUMPDEST PUSH1 0x40 MLOAD PUSH2 0x8E SWAP2 SWAP1 PUSH2 0x270 JUMP JUMPDEST PUSH1 0x40 MLOAD DUP1 SWAP2 SUB SWAP1 RETURN JUMPDEST PUSH2 0xB1 PUSH1 0x4 DUP1 CALLDATASIZE SUB DUP2 ADD SWAP1 PUSH2 0xAC SWAP2 SWAP1 PUSH2 0x1B5 JUMP JUMPDEST PUSH2 0x11C JUMP JUMPDEST PUSH1 0x40 MLOAD PUSH2 0xBE SWAP2 SWAP1 PUSH2 0x270 JUMP JUMPDEST PUSH1 0x40 MLOAD DUP1 SWAP2 SUB SWAP1 RETURN JUMPDEST PUSH1 0xF PUSH1 0x0 DUP2 SWAP1 SSTORE POP PUSH1 0xA PUSH1 0x0 DUP2 SWAP1 SSTORE POP JUMP JUMPDEST PUSH1 0x0 SLOAD DUP2 JUMP JUMPDEST PUSH1 0x60 PUSH1 0x40 MLOAD PUSH32 0x8C379A000000000000000000000000000000000000000000000000000000000 DUP2 MSTORE PUSH1 0x4 ADD PUSH2 0x113 SWAP1 PUSH2 0x2B2 JUMP JUMPDEST PUSH1 0x40 MLOAD DUP1 SWAP2 SUB SWAP1 REVERT JUMPDEST PUSH1 0x60 DUP2 PUSH1 0x12 DUP2 GT PUSH2 0x162 JUMPI PUSH1 0x40 MLOAD PUSH32 0x8C379A000000000000000000000000000000000000000000000000000000000 DUP2 MSTORE PUSH1 0x4 ADD PUSH2 0x159 SWAP1 PUSH2 0x292 JUMP JUMPDEST PUSH1 0x40 MLOAD DUP1 SWAP2 SUB SWAP1 REVERT JUMPDEST PUSH1 0x40 MLOAD DUP1 PUSH1 0x40 ADD PUSH1 0x40 MSTORE DUP1 PUSH1 0x19 DUP2 MSTORE PUSH1 0x20 ADD PUSH32 0x796F7572207061796D656E742069732073756363656564656400000000000000 DUP2 MSTORE POP SWAP2 POP POP SWAP2 SWAP1 POP JUMP JUMPDEST PUSH1 0x0 DUP2 CALLDATALOAD SWAP1 POP PUSH2 0x1AF DUP2 PUSH2 0x3FA JUMP JUMPDEST SWAP3 SWAP2 POP POP JUMP JUMPDEST PUSH1 0x0 PUSH1 0x20 DUP3 DUP5 SUB SLT ISZERO PUSH2 0x1CB JUMPI PUSH2 0x1CA PUSH2 0x346 JUMP JUMPDEST JUMPDEST PUSH1 0x0 PUSH2 0x1D9 DUP5 DUP3 DUP6 ADD PUSH2 0x1A0 JUMP JUMPDEST SWAP2 POP POP SWAP3 SWAP2 POP POP JUMP JUMPDEST PUSH1 0x0 PUSH2 0x1ED DUP3 PUSH2 0x2ED JUMP JUMPDEST PUSH2 0x1F7 DUP2 DUP6 PUSH2 0x2F8 JUMP JUMPDEST SWAP4 POP PUSH2 0x207 DUP2 DUP6 PUSH1 0x20 DUP7 ADD PUSH2 0x313 JUMP JUMPDEST PUSH2 0x210 DUP2 PUSH2 0x34B JUMP JUMPDEST DUP5 ADD SWAP2 POP POP SWAP3 SWAP2 POP POP JUMP JUMPDEST PUSH1 0x0 PUSH2 0x228 PUSH1 0x2C DUP4 PUSH2 0x2F8 JUMP JUMPDEST SWAP2 POP PUSH2 0x233 DUP3 PUSH2 0x35C JUMP JUMPDEST PUSH1 0x40 DUP3 ADD SWAP1 POP SWAP2 SWAP1 POP JUMP JUMPDEST PUSH1 0x0 PUSH2 0x24B PUSH1 0x2C DUP4 PUSH2 0x2F8 JUMP JUMPDEST SWAP2 POP PUSH2 0x256 DUP3 PUSH2 0x3AB JUMP JUMPDEST PUSH1 0x40 DUP3 ADD SWAP1 POP SWAP2 SWAP1 POP JUMP JUMPDEST PUSH2 0x26A DUP2 PUSH2 0x309 JUMP JUMPDEST DUP3 MSTORE POP POP JUMP JUMPDEST PUSH1 0x0 PUSH1 0x20 DUP3 ADD SWAP1 POP DUP2 DUP2 SUB PUSH1 0x0 DUP4 ADD MSTORE PUSH2 0x28A DUP2 DUP5 PUSH2 0x1E2 JUMP JUMPDEST SWAP1 POP SWAP3 SWAP2 POP POP JUMP JUMPDEST PUSH1 0x0 PUSH1 0x20 DUP3 ADD SWAP1 POP DUP2 DUP2 SUB PUSH1 0x0 DUP4 ADD MSTORE PUSH2 0x2AB DUP2 PUSH2 0x21B JUMP JUMPDEST SWAP1 POP SWAP2 SWAP1 POP JUMP JUMPDEST PUSH1 0x0 PUSH1 0x20 DUP3 ADD SWAP1 POP DUP2 DUP2 SUB PUSH1 0x0 DUP4 ADD MSTORE PUSH2 0x2CB DUP2 PUSH2 0x23E JUMP JUMPDEST SWAP1 POP SWAP2 SWAP1 POP JUMP JUMPDEST PUSH1 0x0 PUSH1 0x20 DUP3 ADD SWAP1 POP PUSH2 0x2E7 PUSH1 0x0 DUP4 ADD DUP5 PUSH2 0x261 JUMP JUMPDEST SWAP3 SWAP2 POP POP JUMP JUMPDEST PUSH1 0x0 DUP2 MLOAD SWAP1 POP SWAP2 SWAP1 POP JUMP JUMPDEST PUSH1 0x0 DUP3 DUP3 MSTORE PUSH1 0x20 DUP3 ADD SWAP1 POP SWAP3 SWAP2 POP POP JUMP JUMPDEST PUSH1 0x0 DUP2 SWAP1 POP SWAP2 SWAP1 POP JUMP JUMPDEST PUSH1 0x0 JUMPDEST DUP4 DUP2 LT ISZERO PUSH2 0x331 JUMPI DUP1 DUP3 ADD MLOAD DUP2 DUP5 ADD MSTORE PUSH1 0x20 DUP2 ADD SWAP1 POP PUSH2 0x316 JUMP JUMPDEST DUP4 DUP2 GT ISZERO PUSH2 0x340 JUMPI PUSH1 0x0 DUP5 DUP5 ADD MSTORE JUMPDEST POP POP POP POP JUMP JUMPDEST PUSH1 0x0 DUP1 REVERT JUMPDEST PUSH1 0x0 PUSH1 0x1F NOT PUSH1 0x1F DUP4 ADD AND SWAP1 POP SWAP2 SWAP1 POP JUMP JUMPDEST PUSH32 0x596F7520617265206E6F7420616C6C6F77656420746F2070617920666F722074 PUSH1 0x0 DUP3 ADD MSTORE PUSH32 0x6865206369676172657474650000000000000000000000000000000000000000 PUSH1 0x20 DUP3 ADD MSTORE POP JUMP JUMPDEST PUSH32 0x796F7520617265206E6F7420616C6C6F77656420746F2070617920666F722074 PUSH1 0x0 DUP3 ADD MSTORE PUSH32 0x6865206369676172657474650000000000000000000000000000000000000000 PUSH1 0x20 DUP3 ADD MSTORE POP JUMP JUMPDEST PUSH2 0x403 DUP2 PUSH2 0x309 JUMP JUMPDEST DUP2 EQ PUSH2 0x40E JUMPI PUSH1 0x0 DUP1 REVERT JUMPDEST POP JUMP INVALID LOG2 PUSH5 0x6970667358 0x22 SLT KECCAK256 SWAP8 POP BALANCE PUSH19 0xE3B97857C9E51DD9FF3422AA06DF6CACFC0F6 0xBA TIMESTAMP 0x22 KECCAK256 0xB7 0x2B INVALID 0xC4 0xB4 PUSH5 0x736F6C6343 STOP ADDMOD SMOD STOP CALLER "
		},
		"gasEstimates": {
			"creation": {
				"codeDepositCost": "219000",
				"executionCost": "22369",
				"totalCost": "241369"
			},
			"external": {
				"BuyCigarette()": "477",
				"BuyCigarette2(uint256)": "infinite",
				"num()": "2429",
				"numChangeFunction()": "27250"
			}
		},
		"methodIdentifiers": {
			"BuyCigarette()": "5b2706b6",
			"BuyCigarette2(uint256)": "7128a088",
			"num()": "4e70b1dc",
			"numChangeFunction()": "32a61695"
		}
	},
	"abi": [
		{
			"inputs": [],
			"name": "BuyCigarette",
			"outputs": [
				{
					"internalType": "string",
					"name": "",
					"type": "string"
				}
			],
			"stateMutability": "nonpayable",
			"type": "function"
		},
		{
			"inputs": [
				{
					"internalType": "uint256",
					"name": "_age",
					"type": "uint256"
				}
			],
			"name": "BuyCigarette2",
			"outputs": [
				{
					"internalType": "string",
					"name": "",
					"type": "string"
				}
			],
			"stateMutability": "nonpayable",
			"type": "function"
		},
		{
			"inputs": [],
			"name": "num",
			"outputs": [
				{
					"internalType": "uint256",
					"name": "",
					"type": "uint256"
				}
			],
			"stateMutability": "view",
			"type": "function"
		},
		{
			"inputs": [],
			"name": "numChangeFunction",
			"outputs": [],
			"stateMutability": "nonpayable",
			"type": "function"
		}
	]
}