{
	"data": {
		"bytecode": {
			"linkReferences": {},
			"object": "608060405234801561001057600080fd5b50610337806100206000396000f3fe608060405234801561001057600080fd5b50600436106100365760003560e01c8063d57f43831461003b578063df201a461461005a575b600080fd5b610043610078565b604051610051929190610243565b60405180910390f35b610062610146565b60405161006f9190610228565b60405180910390f35b6000803073ffffffffffffffffffffffffffffffffffffffff1663df201a466040518163ffffffff1660e01b8152600401602060405180830381600087803b1580156100c357600080fd5b505af19250505080156100f457506040513d601f19601f820116820180604052508101906100f19190610164565b60015b610139577fed1339d3b97aca38a4bc95190b93af9130be96b54e1bc34caa04b59819decfa0604051610125906101f5565b60405180910390a160008091509150610142565b80600192509250505b9091565b60006004905090565b60008151905061015e816102ea565b92915050565b60006020828403121561017a57610179610293565b5b60006101888482850161014f565b91505092915050565b61019a8161027d565b82525050565b60006101ad60058361026c565b91506101b882610298565b602082019050919050565b60006101d060088361026c565b91506101db826102c1565b602082019050919050565b6101ef81610289565b82525050565b6000604082019050818103600083015261020e816101a0565b90508181036020830152610221816101c3565b9050919050565b600060208201905061023d60008301846101e6565b92915050565b600060408201905061025860008301856101e6565b6102656020830184610191565b9392505050565b600082825260208201905092915050565b60008115159050919050565b6000819050919050565b600080fd5b7f6361746368000000000000000000000000000000000000000000000000000000600082015250565b7f4572726f72532121000000000000000000000000000000000000000000000000600082015250565b6102f381610289565b81146102fe57600080fd5b5056fea2646970667358221220649268291a6243bc4f608297d1b11cd6aa1717d3f6bce0262f6f37c0a42690bc64736f6c63430008070033",
			"opcodes": "PUSH1 0x80 PUSH1 0x40 MSTORE CALLVALUE DUP1 ISZERO PUSH2 0x10 JUMPI PUSH1 0x0 DUP1 REVERT JUMPDEST POP PUSH2 0x337 DUP1 PUSH2 0x20 PUSH1 0x0 CODECOPY PUSH1 0x0 RETURN INVALID PUSH1 0x80 PUSH1 0x40 MSTORE CALLVALUE DUP1 ISZERO PUSH2 0x10 JUMPI PUSH1 0x0 DUP1 REVERT JUMPDEST POP PUSH1 0x4 CALLDATASIZE LT PUSH2 0x36 JUMPI PUSH1 0x0 CALLDATALOAD PUSH1 0xE0 SHR DUP1 PUSH4 0xD57F4383 EQ PUSH2 0x3B JUMPI DUP1 PUSH4 0xDF201A46 EQ PUSH2 0x5A JUMPI JUMPDEST PUSH1 0x0 DUP1 REVERT JUMPDEST PUSH2 0x43 PUSH2 0x78 JUMP JUMPDEST PUSH1 0x40 MLOAD PUSH2 0x51 SWAP3 SWAP2 SWAP1 PUSH2 0x243 JUMP JUMPDEST PUSH1 0x40 MLOAD DUP1 SWAP2 SUB SWAP1 RETURN JUMPDEST PUSH2 0x62 PUSH2 0x146 JUMP JUMPDEST PUSH1 0x40 MLOAD PUSH2 0x6F SWAP2 SWAP1 PUSH2 0x228 JUMP JUMPDEST PUSH1 0x40 MLOAD DUP1 SWAP2 SUB SWAP1 RETURN JUMPDEST PUSH1 0x0 DUP1 ADDRESS PUSH20 0xFFFFFFFFFFFFFFFFFFFFFFFFFFFFFFFFFFFFFFFF AND PUSH4 0xDF201A46 PUSH1 0x40 MLOAD DUP2 PUSH4 0xFFFFFFFF AND PUSH1 0xE0 SHL DUP2 MSTORE PUSH1 0x4 ADD PUSH1 0x20 PUSH1 0x40 MLOAD DUP1 DUP4 SUB DUP2 PUSH1 0x0 DUP8 DUP1 EXTCODESIZE ISZERO DUP1 ISZERO PUSH2 0xC3 JUMPI PUSH1 0x0 DUP1 REVERT JUMPDEST POP GAS CALL SWAP3 POP POP POP DUP1 ISZERO PUSH2 0xF4 JUMPI POP PUSH1 0x40 MLOAD RETURNDATASIZE PUSH1 0x1F NOT PUSH1 0x1F DUP3 ADD AND DUP3 ADD DUP1 PUSH1 0x40 MSTORE POP DUP2 ADD SWAP1 PUSH2 0xF1 SWAP2 SWAP1 PUSH2 0x164 JUMP JUMPDEST PUSH1 0x1 JUMPDEST PUSH2 0x139 JUMPI PUSH32 0xED1339D3B97ACA38A4BC95190B93AF9130BE96B54E1BC34CAA04B59819DECFA0 PUSH1 0x40 MLOAD PUSH2 0x125 SWAP1 PUSH2 0x1F5 JUMP JUMPDEST PUSH1 0x40 MLOAD DUP1 SWAP2 SUB SWAP1 LOG1 PUSH1 0x0 DUP1 SWAP2 POP SWAP2 POP PUSH2 0x142 JUMP JUMPDEST DUP1 PUSH1 0x1 SWAP3 POP SWAP3 POP POP JUMPDEST SWAP1 SWAP2 JUMP JUMPDEST PUSH1 0x0 PUSH1 0x4 SWAP1 POP SWAP1 JUMP JUMPDEST PUSH1 0x0 DUP2 MLOAD SWAP1 POP PUSH2 0x15E DUP2 PUSH2 0x2EA JUMP JUMPDEST SWAP3 SWAP2 POP POP JUMP JUMPDEST PUSH1 0x0 PUSH1 0x20 DUP3 DUP5 SUB SLT ISZERO PUSH2 0x17A JUMPI PUSH2 0x179 PUSH2 0x293 JUMP JUMPDEST JUMPDEST PUSH1 0x0 PUSH2 0x188 DUP5 DUP3 DUP6 ADD PUSH2 0x14F JUMP JUMPDEST SWAP2 POP POP SWAP3 SWAP2 POP POP JUMP JUMPDEST PUSH2 0x19A DUP2 PUSH2 0x27D JUMP JUMPDEST DUP3 MSTORE POP POP JUMP JUMPDEST PUSH1 0x0 PUSH2 0x1AD PUSH1 0x5 DUP4 PUSH2 0x26C JUMP JUMPDEST SWAP2 POP PUSH2 0x1B8 DUP3 PUSH2 0x298 JUMP JUMPDEST PUSH1 0x20 DUP3 ADD SWAP1 POP SWAP2 SWAP1 POP JUMP JUMPDEST PUSH1 0x0 PUSH2 0x1D0 PUSH1 0x8 DUP4 PUSH2 0x26C JUMP JUMPDEST SWAP2 POP PUSH2 0x1DB DUP3 PUSH2 0x2C1 JUMP JUMPDEST PUSH1 0x20 DUP3 ADD SWAP1 POP SWAP2 SWAP1 POP JUMP JUMPDEST PUSH2 0x1EF DUP2 PUSH2 0x289 JUMP JUMPDEST DUP3 MSTORE POP POP JUMP JUMPDEST PUSH1 0x0 PUSH1 0x40 DUP3 ADD SWAP1 POP DUP2 DUP2 SUB PUSH1 0x0 DUP4 ADD MSTORE PUSH2 0x20E DUP2 PUSH2 0x1A0 JUMP JUMPDEST SWAP1 POP DUP2 DUP2 SUB PUSH1 0x20 DUP4 ADD MSTORE PUSH2 0x221 DUP2 PUSH2 0x1C3 JUMP JUMPDEST SWAP1 POP SWAP2 SWAP1 POP JUMP JUMPDEST PUSH1 0x0 PUSH1 0x20 DUP3 ADD SWAP1 POP PUSH2 0x23D PUSH1 0x0 DUP4 ADD DUP5 PUSH2 0x1E6 JUMP JUMPDEST SWAP3 SWAP2 POP POP JUMP JUMPDEST PUSH1 0x0 PUSH1 0x40 DUP3 ADD SWAP1 POP PUSH2 0x258 PUSH1 0x0 DUP4 ADD DUP6 PUSH2 0x1E6 JUMP JUMPDEST PUSH2 0x265 PUSH1 0x20 DUP4 ADD DUP5 PUSH2 0x191 JUMP JUMPDEST SWAP4 SWAP3 POP POP POP JUMP JUMPDEST PUSH1 0x0 DUP3 DUP3 MSTORE PUSH1 0x20 DUP3 ADD SWAP1 POP SWAP3 SWAP2 POP POP JUMP JUMPDEST PUSH1 0x0 DUP2 ISZERO ISZERO SWAP1 POP SWAP2 SWAP1 POP JUMP JUMPDEST PUSH1 0x0 DUP2 SWAP1 POP SWAP2 SWAP1 POP JUMP JUMPDEST PUSH1 0x0 DUP1 REVERT JUMPDEST PUSH32 0x6361746368000000000000000000000000000000000000000000000000000000 PUSH1 0x0 DUP3 ADD MSTORE POP JUMP JUMPDEST PUSH32 0x4572726F72532121000000000000000000000000000000000000000000000000 PUSH1 0x0 DUP3 ADD MSTORE POP JUMP JUMPDEST PUSH2 0x2F3 DUP2 PUSH2 0x289 JUMP JUMPDEST DUP2 EQ PUSH2 0x2FE JUMPI PUSH1 0x0 DUP1 REVERT JUMPDEST POP JUMP INVALID LOG2 PUSH5 0x6970667358 0x22 SLT KECCAK256 PUSH5 0x9268291A62 NUMBER 0xBC 0x4F PUSH1 0x82 SWAP8 0xD1 0xB1 SHR 0xD6 0xAA OR OR 0xD3 0xF6 0xBC 0xE0 0x26 0x2F PUSH16 0x37C0A42690BC64736F6C634300080700 CALLER "
		},
		"gasEstimates": {
			"creation": {
				"codeDepositCost": "164600",
				"executionCost": "208",
				"totalCost": "164808"
			},
			"external": {
				"playTryCatch()": "infinite",
				"simple()": "337"
			}
		},
		"methodIdentifiers": {
			"playTryCatch()": "d57f4383",
			"simple()": "df201a46"
		}
	},
	"abi": [
		{
			"anonymous": false,
			"inputs": [
				{
					"indexed": false,
					"internalType": "string",
					"name": "_name",
					"type": "string"
				},
				{
					"indexed": false,
					"internalType": "string",
					"name": "_err",
					"type": "string"
				}
			],
			"name": "catchOnly",
			"type": "event"
		},
		{
			"inputs": [],
			"name": "playTryCatch",
			"outputs": [
				{
					"internalType": "uint256",
					"name": "",
					"type": "uint256"
				},
				{
					"internalType": "bool",
					"name": "",
					"type": "bool"
				}
			],
			"stateMutability": "nonpayable",
			"type": "function"
		},
		{
			"inputs": [],
			"name": "simple",
			"outputs": [
				{
					"internalType": "uint256",
					"name": "",
					"type": "uint256"
				}
			],
			"stateMutability": "nonpayable",
			"type": "function"
		}
	]
}