{
  "contractName": "Gacha",
  "abi": [
    {
      "constant": false,
      "inputs": [],
      "name": "ShowItem",
      "outputs": [
        {
          "internalType": "string[10]",
          "name": "",
          "type": "string[10]"
        }
      ],
      "payable": false,
      "stateMutability": "nonpayable",
      "type": "function"
    }
  ],
  "bytecode": "0x608060405234801561001057600080fd5b506106dc806100206000396000f3fe608060405234801561001057600080fd5b506004361061002b5760003560e01c80630742da0014610030575b600080fd5b61003861004e565b60405161004591906105ea565b60405180910390f35b610056610394565b6040518061014001604052806040518060400160405280600381526020017f6f6e65000000000000000000000000000000000000000000000000000000000081525081526020016040518060400160405280600381526020017f74776f000000000000000000000000000000000000000000000000000000000081525081526020016040518060400160405280600581526020017f746872656500000000000000000000000000000000000000000000000000000081525081526020016040518060400160405280600481526020017f666f75720000000000000000000000000000000000000000000000000000000081525081526020016040518060400160405280600481526020017f666976650000000000000000000000000000000000000000000000000000000081525081526020016040518060400160405280600381526020017f736978000000000000000000000000000000000000000000000000000000000081525081526020016040518060400160405280600581526020017f736576656e00000000000000000000000000000000000000000000000000000081525081526020016040518060400160405280600581526020017f656967687400000000000000000000000000000000000000000000000000000081525081526020016040518060400160405280600481526020017f6e696e650000000000000000000000000000000000000000000000000000000081525081526020016040518060400160405280600381526020017f74656e0000000000000000000000000000000000000000000000000000000000815250815250600090600a6102be9291906103bc565b506000600a80602002604051908101604052809291906000905b8282101561038b578382018054600181600116156101000203166002900480601f0160208091040260200160405190810160405280929190818152602001828054600181600116156101000203166002900480156103775780601f1061034c57610100808354040283529160200191610377565b820191906000526020600020905b81548152906001019060200180831161035a57829003601f168201915b5050505050815260200190600101906102d8565b50505050905090565b604051806101400160405280600a905b60608152602001906001900390816103a45790505090565b82600a81019282156103fe579160200282015b828111156103fd5782518290805190602001906103ed92919061040f565b50916020019190600101906103cf565b5b50905061040b919061048f565b5090565b828054600181600116156101000203166002900490600052602060002090601f016020900481019282601f1061045057805160ff191683800117855561047e565b8280016001018555821561047e579182015b8281111561047d578251825591602001919060010190610462565b5b50905061048b91906104bb565b5090565b6104b891905b808211156104b457600081816104ab91906104e0565b50600101610495565b5090565b90565b6104dd91905b808211156104d95760008160009055506001016104c1565b5090565b90565b50805460018160011615610100020316600290046000825580601f106105065750610525565b601f01602090049060005260206000209081019061052491906104bb565b5b50565b600061053483836105b1565b905092915050565b600061054782610616565b6105518185610639565b9350836020820285016105638561060c565b8060005b8581101561059f57848403895281516105808582610528565b945061058b8361062c565b925060208a01995050600181019050610567565b50829750879550505050505092915050565b60006105bc82610621565b6105c68185610644565b93506105d6818560208601610655565b6105df81610688565b840191505092915050565b60006020820190508181036000830152610604818461053c565b905092915050565b6000819050919050565b6000600a9050919050565b600081519050919050565b6000602082019050919050565b600081905092915050565b600082825260208201905092915050565b60005b83811015610673578082015181840152602081019050610658565b83811115610682576000848401525b50505050565b6000601f19601f830116905091905056fea365627a7a723158207f5e128a8889738c5420c51735efd1e53a18841a63ea821c18efd413ae4187106c6578706572696d656e74616cf564736f6c63430005100040",
  "source": "// 오늘 할 일 \r\n//  - 가쟈 디앱 만들기 \r\n//  - 기능 1 : 10개의 아이템이 존재하고 뽑기 1회 당 정해진 가스를 소모하면서 \r\n//랜덤 확률로 아이템을 획득한다.\r\n\r\n//  - 기능 2 : 뽑기 5회마다 1회의 보너스 기회를 준다..\r\n// (지금까지 뽑기 내역은 이벤트를 통해 처리한다.)\r\n\r\n\r\n//투표랑 마켓거래랑 구조는 비슷하다고 생각해도 될듯\r\n//기존에 10개의 아이템이 등록되어 있음\r\n//누르면 뽑을 수 있음 (1회당 가스소비)\r\n//아이템은 렌덤하게 선택됨\r\n//뽑기를 5번하면 1번도 기회받을 수 있음 (저번에 투표를 1번만하게 막는거 다 리액트에서 막았는데\r\n//뽑기 내역을 이벤트통해 처리하면 솔리디티에서 다뤄야하는건가...)\r\n\r\n// // SPDX-License-Identifier: MIT\r\npragma solidity >=0.4.21 <8.10.0;\r\npragma experimental ABIEncoderV2;\r\n\r\ncontract Gacha{\r\n    //기존에 10개 아이템, 뽑는가스쓰는사람주소, 뽑기내역 저장?\r\n    \r\n\r\n    //기존 아이템배열\r\n    // string GachaItem;\r\n    string[10] GachaItemList;\r\n    // mapping(string => bool) GachaItemExists;\r\n\r\n    // constructor() {\r\n    //     GachaItemlist = GachaItem.push();        \r\n    // }\r\n\r\n    //아이템 보여주는 애\r\n    function ShowItem() public returns(string[10] memory){\r\n      GachaItemList  = [\"one\",\"two\",\"three\",\"four\",\"five\",\"six\",\"seven\",\"eight\",\"nine\",\"ten\"];\r\n      return GachaItemList;\r\n       \r\n    }      \r\n\r\n\r\n}",
  "sourcePath": "C:\\Users\\syusm\\OneDrive\\문서\\GitHub\\solidity\\GachaDapp\\contracts\\Gacha.sol",
  "compiler": {
    "name": "solc",
    "version": "0.5.16+commit.9c3226ce.Emscripten.clang"
  },
  "schemaVersion": "3.4.5",
  "updatedAt": "2022-03-02T05:28:04.844Z",
  "devdoc": {
    "methods": {}
  },
  "userdoc": {
    "methods": {}
  }
}