{
  "contractName": "Gacha",
  "abi": [
    {
      "inputs": [],
      "name": "ShowItem",
      "outputs": [
        {
          "internalType": "string[10]",
          "name": "",
          "type": "string[10]"
        }
      ],
      "stateMutability": "nonpayable",
      "type": "function"
    }
  ],
  "bytecode": "0x608060405234801561001057600080fd5b5061070e806100206000396000f3fe608060405234801561001057600080fd5b506004361061002b5760003560e01c80630742da0014610030575b600080fd5b61003861004e565b6040516100459190610655565b60405180910390f35b610056610384565b6040518061014001604052806040518060400160405280600381526020017f6f6e65000000000000000000000000000000000000000000000000000000000081525081526020016040518060400160405280600381526020017f74776f000000000000000000000000000000000000000000000000000000000081525081526020016040518060400160405280600581526020017f746872656500000000000000000000000000000000000000000000000000000081525081526020016040518060400160405280600481526020017f666f75720000000000000000000000000000000000000000000000000000000081525081526020016040518060400160405280600481526020017f666976650000000000000000000000000000000000000000000000000000000081525081526020016040518060400160405280600381526020017f736978000000000000000000000000000000000000000000000000000000000081525081526020016040518060400160405280600581526020017f736576656e00000000000000000000000000000000000000000000000000000081525081526020016040518060400160405280600581526020017f656967687400000000000000000000000000000000000000000000000000000081525081526020016040518060400160405280600481526020017f6e696e650000000000000000000000000000000000000000000000000000000081525081526020016040518060400160405280600381526020017f74656e0000000000000000000000000000000000000000000000000000000000815250815250600090600a6102be9291906103ac565b506000600a80602002604051908101604052809291906000905b8282101561037b5783820180546102ee906106a6565b80601f016020809104026020016040519081016040528092919081815260200182805461031a906106a6565b80156103675780601f1061033c57610100808354040283529160200191610367565b820191906000526020600020905b81548152906001019060200180831161034a57829003601f168201915b5050505050815260200190600101906102d8565b50505050905090565b604051806101400160405280600a905b60608152602001906001900390816103945790505090565b82600a81019282156103ee579160200282015b828111156103ed5782518290805190602001906103dd9291906103ff565b50916020019190600101906103bf565b5b5090506103fb9190610485565b5090565b82805461040b906106a6565b90600052602060002090601f01602090048101928261042d5760008555610474565b82601f1061044657805160ff1916838001178555610474565b82800160010185558215610474579182015b82811115610473578251825591602001919060010190610458565b5b50905061048191906104a9565b5090565b5b808211156104a5576000818161049c91906104c6565b50600101610486565b5090565b5b808211156104c25760008160009055506001016104aa565b5090565b5080546104d2906106a6565b6000825580601f106104e45750610503565b601f01602090049060005260206000209081019061050291906104a9565b5b50565b6000600a9050919050565b600081905092915050565b6000819050919050565b600081519050919050565b600082825260208201905092915050565b60005b83811015610560578082015181840152602081019050610545565b8381111561056f576000848401525b50505050565b6000601f19601f8301169050919050565b600061059182610526565b61059b8185610531565b93506105ab818560208601610542565b6105b481610575565b840191505092915050565b60006105cb8383610586565b905092915050565b6000602082019050919050565b60006105eb82610506565b6105f58185610511565b9350836020820285016106078561051c565b8060005b85811015610643578484038952815161062485826105bf565b945061062f836105d3565b925060208a0199505060018101905061060b565b50829750879550505050505092915050565b6000602082019050818103600083015261066f81846105e0565b905092915050565b7f4e487b7100000000000000000000000000000000000000000000000000000000600052602260045260246000fd5b600060028204905060018216806106be57607f821691505b602082108114156106d2576106d1610677565b5b5091905056fea2646970667358221220aaa27ec4697d40dd55fdb7d73aaa92c404737ee0aa0babc2f61c09a18599801564736f6c634300080c0033",
  "immutableReferences": {},
  "source": "//    \r\n//  -    \r\n//  -  1 : 10    1     \r\n//   .\r\n\r\n//  -  2 :  5 1   ..\r\n// (     .)\r\n\r\n\r\n//     \r\n// 10   \r\n//    (1 )\r\n//  \r\n// 5 1    (  1    \r\n//     ...)\r\n\r\n// // SPDX-License-Identifier: MIT\r\npragma solidity >=0.4.21 <8.10.0;\r\n//\r\npragma experimental ABIEncoderV2; //    (pragma solidity ^0.8.0;)   \r\n\r\ncontract Gacha{\r\n    // 10 , ,  ?\r\n    \r\n\r\n    // \r\n    // string GachaItem;\r\n    string[10] GachaItemList;\r\n    // mapping(string => bool) GachaItemExists;\r\n\r\n    // constructor() {\r\n    //     GachaItemlist = GachaItem.push();        \r\n    // }\r\n\r\n    //  \r\n    function ShowItem() public returns(string[10] memory){\r\n      GachaItemList  = [\"one\",\"two\",\"three\",\"four\",\"five\",\"six\",\"seven\",\"eight\",\"nine\",\"ten\"];\r\n      return GachaItemList;\r\n       \r\n    }      \r\n\r\n\r\n}",
  "sourcePath": "C:\\Users\\syusm\\OneDrive\\\\GitHub\\solidity\\GachaDapp\\contracts\\Gacha.sol",
  "compiler": {
    "name": "solc",
    "version": "0.8.12+commit.f00d7308.Emscripten.clang"
  },
  "schemaVersion": "3.4.5",
  "updatedAt": "2022-03-06T08:45:19.131Z",
  "devdoc": {
    "kind": "dev",
    "methods": {},
    "version": 1
  },
  "userdoc": {
    "kind": "user",
    "methods": {},
    "version": 1
  }
}