{
  "contractName": "RabdomPick",
  "abi": [
    {
      "inputs": [],
      "stateMutability": "nonpayable",
      "type": "constructor"
    },
    {
      "anonymous": false,
      "inputs": [
        {
          "indexed": true,
          "internalType": "address",
          "name": "_pickAddr",
          "type": "address"
        },
        {
          "indexed": false,
          "internalType": "uint256",
          "name": "_pickItem",
          "type": "uint256"
        }
      ],
      "name": "bonusPickResult",
      "type": "event"
    },
    {
      "anonymous": false,
      "inputs": [
        {
          "indexed": true,
          "internalType": "address",
          "name": "_pickAddr",
          "type": "address"
        },
        {
          "indexed": true,
          "internalType": "uint256",
          "name": "_pickCount",
          "type": "uint256"
        },
        {
          "indexed": false,
          "internalType": "uint256",
          "name": "_pickItem",
          "type": "uint256"
        }
      ],
      "name": "pickResult",
      "type": "event"
    },
    {
      "inputs": [
        {
          "internalType": "uint256",
          "name": "",
          "type": "uint256"
        }
      ],
      "name": "itemList",
      "outputs": [
        {
          "internalType": "uint256",
          "name": "",
          "type": "uint256"
        }
      ],
      "stateMutability": "view",
      "type": "function"
    },
    {
      "inputs": [
        {
          "internalType": "address",
          "name": "",
          "type": "address"
        },
        {
          "internalType": "uint256",
          "name": "",
          "type": "uint256"
        }
      ],
      "name": "itemsPerAddress",
      "outputs": [
        {
          "internalType": "uint256",
          "name": "",
          "type": "uint256"
        }
      ],
      "stateMutability": "view",
      "type": "function"
    },
    {
      "stateMutability": "payable",
      "type": "receive"
    },
    {
      "inputs": [],
      "name": "randomPick",
      "outputs": [],
      "stateMutability": "payable",
      "type": "function"
    },
    {
      "inputs": [],
      "name": "bonusPick",
      "outputs": [],
      "stateMutability": "nonpayable",
      "type": "function"
    },
    {
      "inputs": [],
      "name": "randomItem",
      "outputs": [
        {
          "internalType": "uint256",
          "name": "",
          "type": "uint256"
        }
      ],
      "stateMutability": "view",
      "type": "function"
    },
    {
      "inputs": [],
      "name": "getItemsPerAddress",
      "outputs": [
        {
          "internalType": "uint256[]",
          "name": "",
          "type": "uint256[]"
        }
      ],
      "stateMutability": "view",
      "type": "function"
    }
  ],
  "bytecode": "0x6080604052604051806101400160405280600160ff168152602001600260ff168152602001600360ff168152602001600460ff168152602001600560ff168152602001600660ff168152602001600760ff168152602001600860ff168152602001600960ff168152602001600a60ff16815250600190600a6100829291906100d5565b5034801561008f57600080fd5b50336000806101000a81548173ffffffffffffffffffffffffffffffffffffffff021916908373ffffffffffffffffffffffffffffffffffffffff160217905550610137565b82600a8101928215610109579160200282015b82811115610108578251829060ff169055916020019190600101906100e8565b5b509050610116919061011a565b5090565b5b8082111561013357600081600090555060010161011b565b5090565b610c00806101466000396000f3fe6080604052600436106100595760003560e01c80630b0fb4f3146100655780633d4d3600146100a257806376c6913d146100df5780638f6c72fa146100f6578063b92a188314610121578063d85ed0f41461014c57610060565b3661006057005b600080fd5b34801561007157600080fd5b5061008c6004803603810190610087919061079e565b610156565b60405161009991906107ed565b60405180910390f35b3480156100ae57600080fd5b506100c960048036038101906100c49190610808565b610187565b6040516100d691906107ed565b60405180910390f35b3480156100eb57600080fd5b506100f46101a2565b005b34801561010257600080fd5b5061010b61037d565b60405161011891906107ed565b60405180910390f35b34801561012d57600080fd5b5061013661040d565b60405161014391906108f3565b60405180910390f35b6101546104a2565b005b600c602052816000526040600020818154811061017257600080fd5b90600052602060002001600091509150505481565b600181600a811061019757600080fd5b016000915090505481565b60011515600e60003373ffffffffffffffffffffffffffffffffffffffff1673ffffffffffffffffffffffffffffffffffffffff16815260200190815260200160002060009054906101000a900460ff16151514610235576040517f08c379a000000000000000000000000000000000000000000000000000000000815260040161022c90610972565b60405180910390fd5b600b6000815480929190610248906109c1565b91905055506000600161025961037d565b600a811061026a57610269610a0a565b5b01549050600c60003373ffffffffffffffffffffffffffffffffffffffff1673ffffffffffffffffffffffffffffffffffffffff1681526020019081526020016000208190806001815401808255809150506001900390600052602060002001600090919091909150553373ffffffffffffffffffffffffffffffffffffffff167f786591c8a94d59edfd6f65f55804171b29afce0727f29f9ec6d540b529092b528260405161031a91906107ed565b60405180910390a26000600e60003373ffffffffffffffffffffffffffffffffffffffff1673ffffffffffffffffffffffffffffffffffffffff16815260200190815260200160002060006101000a81548160ff02191690831515021790555050565b60006001600a4442600b54600d60003373ffffffffffffffffffffffffffffffffffffffff1673ffffffffffffffffffffffffffffffffffffffff168152602001908152602001600020546040516020016103db9493929190610a5a565b6040516020818303038152906040528051906020012060001c6103fe9190610ad7565b6104089190610b08565b905090565b6060600c60003373ffffffffffffffffffffffffffffffffffffffff1673ffffffffffffffffffffffffffffffffffffffff16815260200190815260200160002080548060200260200160405190810160405280929190818152602001828054801561049857602002820191906000526020600020905b815481526020019060010190808311610484575b5050505050905090565b66470de4df82000034146104eb576040517f08c379a00000000000000000000000000000000000000000000000000000000081526004016104e290610baa565b60405180910390fd5b600060016104f761037d565b600a811061050857610507610a0a565b5b01549050600c60003373ffffffffffffffffffffffffffffffffffffffff1673ffffffffffffffffffffffffffffffffffffffff168152602001908152602001600020819080600181540180825580915050600190039060005260206000200160009091909190915055600d60003373ffffffffffffffffffffffffffffffffffffffff1673ffffffffffffffffffffffffffffffffffffffff16815260200190815260200160002060008154809291906105c2906109c1565b9190505550600d60003373ffffffffffffffffffffffffffffffffffffffff1673ffffffffffffffffffffffffffffffffffffffff168152602001908152602001600020543373ffffffffffffffffffffffffffffffffffffffff167f609d15c6965adc5ff846242540425836b9f9bbd75000b0ae85ba1c8d38ef5ec08360405161064d91906107ed565b60405180910390a360006005600d60003373ffffffffffffffffffffffffffffffffffffffff1673ffffffffffffffffffffffffffffffffffffffff168152602001908152602001600020546106a39190610ad7565b1415610702576001600e60003373ffffffffffffffffffffffffffffffffffffffff1673ffffffffffffffffffffffffffffffffffffffff16815260200190815260200160002060006101000a81548160ff0219169083151502179055505b50565b600080fd5b600073ffffffffffffffffffffffffffffffffffffffff82169050919050565b60006107358261070a565b9050919050565b6107458161072a565b811461075057600080fd5b50565b6000813590506107628161073c565b92915050565b6000819050919050565b61077b81610768565b811461078657600080fd5b50565b60008135905061079881610772565b92915050565b600080604083850312156107b5576107b4610705565b5b60006107c385828601610753565b92505060206107d485828601610789565b9150509250929050565b6107e781610768565b82525050565b600060208201905061080260008301846107de565b92915050565b60006020828403121561081e5761081d610705565b5b600061082c84828501610789565b91505092915050565b600081519050919050565b600082825260208201905092915050565b6000819050602082019050919050565b61086a81610768565b82525050565b600061087c8383610861565b60208301905092915050565b6000602082019050919050565b60006108a082610835565b6108aa8185610840565b93506108b583610851565b8060005b838110156108e65781516108cd8882610870565b97506108d883610888565b9250506001810190506108b9565b5085935050505092915050565b6000602082019050818103600083015261090d8184610895565b905092915050565b600082825260208201905092915050565b7f6e6f20626f6e7573207475726e00000000000000000000000000000000000000600082015250565b600061095c600d83610915565b915061096782610926565b602082019050919050565b6000602082019050818103600083015261098b8161094f565b9050919050565b7f4e487b7100000000000000000000000000000000000000000000000000000000600052601160045260246000fd5b60006109cc82610768565b91507fffffffffffffffffffffffffffffffffffffffffffffffffffffffffffffffff8214156109ff576109fe610992565b5b600182019050919050565b7f4e487b7100000000000000000000000000000000000000000000000000000000600052603260045260246000fd5b6000819050919050565b610a54610a4f82610768565b610a39565b82525050565b6000610a668287610a43565b602082019150610a768286610a43565b602082019150610a868285610a43565b602082019150610a968284610a43565b60208201915081905095945050505050565b7f4e487b7100000000000000000000000000000000000000000000000000000000600052601260045260246000fd5b6000610ae282610768565b9150610aed83610768565b925082610afd57610afc610aa8565b5b828206905092915050565b6000610b1382610768565b9150610b1e83610768565b9250827fffffffffffffffffffffffffffffffffffffffffffffffffffffffffffffffff03821115610b5357610b52610992565b5b828201905092915050565b7f76616c7565206973206e6f7420636f7272656374000000000000000000000000600082015250565b6000610b94601483610915565b9150610b9f82610b5e565b602082019050919050565b60006020820190508181036000830152610bc381610b87565b905091905056fea2646970667358221220c5bae9186a0a9b40ebcc0ae70aae37732709b13172eb603191c6833f7261caa564736f6c634300080c0033",
  "immutableReferences": {},
  "source": "// SPDX-License-Identifier: MIT\r\npragma solidity ^0.8.0;\r\n\r\ncontract RabdomPick {\r\n\r\n    event pickResult(address indexed _pickAddr, uint indexed _pickCount, uint _pickItem);\r\n    event bonusPickResult(address indexed _pickAddr, uint _pickItem);\r\n\r\n    address private owner;\r\n\r\n    constructor  (){\r\n        owner = msg.sender;\r\n    }\r\n\r\n    receive()external payable {} // \r\n    \r\n    //  \r\n    uint[10] public itemList = [1,2,3,4,5,6,7,8,9,10];\r\n\r\n    uint private pickCount; //  \r\n    mapping(address=>uint[]) public itemsPerAddress; // \r\n    mapping(address=>uint) private pickCountPerAddress; //  \r\n    mapping(address=>bool) private bonusTurn; //  \r\n\r\n\r\n\r\n    function randomPick () public payable {\r\n        require(msg.value == 2*10**16, \"value is not correct\");\r\n        uint random = itemList[randomItem()];\r\n        itemsPerAddress[msg.sender].push(random);\r\n\r\n        pickCountPerAddress[msg.sender]++;\r\n\r\n        emit pickResult(msg.sender, pickCountPerAddress[msg.sender], random);\r\n\r\n        if(pickCountPerAddress[msg.sender] % 5 == 0){\r\n            bonusTurn[msg.sender] = true;\r\n        }\r\n    }\r\n\r\n    function bonusPick() public {\r\n        require(bonusTurn[msg.sender]==true,\"no bonus turn\");\r\n        pickCount++;\r\n        uint bonus = itemList[randomItem()];\r\n        itemsPerAddress[msg.sender].push(bonus);\r\n        emit bonusPickResult(msg.sender,bonus);\r\n        bonusTurn[msg.sender] = false;\r\n    }\r\n\r\n    // \r\n    function randomItem() public view returns(uint){\r\n        return  uint(keccak256(abi.encodePacked(block.difficulty, block.timestamp, pickCount, pickCountPerAddress[msg.sender]))) % 10 + 1;\r\n    }\r\n\r\n    function getItemsPerAddress() public view returns(uint[] memory){\r\n        return itemsPerAddress[msg.sender];\r\n    }\r\n\r\n}",
  "sourcePath": "C:\\Users\\syusm\\OneDrive\\\\GitHub\\solidity\\GachaDapp\\contracts\\RabdomPick.sol",
  "compiler": {
    "name": "solc",
    "version": "0.8.12+commit.f00d7308.Emscripten.clang"
  },
  "schemaVersion": "3.4.5",
  "updatedAt": "2022-03-06T08:45:19.145Z",
  "devdoc": {
    "kind": "dev",
    "methods": {},
    "version": 1
  },
  "userdoc": {
    "kind": "user",
    "methods": {},
    "version": 1
  }
}